{
  "contractName": "Bookchain",
  "abi": [
    {
      "anonymous": false,
      "inputs": [
        {
          "indexed": true,
          "internalType": "bytes32",
          "name": "recordHash",
          "type": "bytes32"
        },
        {
          "indexed": false,
          "internalType": "bytes32",
          "name": "authorName",
          "type": "bytes32"
        },
        {
          "indexed": false,
          "internalType": "bytes32",
          "name": "title",
          "type": "bytes32"
        },
        {
          "indexed": false,
          "internalType": "bytes32",
          "name": "email",
          "type": "bytes32"
        },
        {
          "indexed": false,
          "internalType": "uint256",
          "name": "timestamp",
          "type": "uint256"
        },
        {
          "indexed": false,
          "internalType": "bool",
          "name": "isDocExists",
          "type": "bool"
        }
      ],
      "name": "_NewBookAuth",
      "type": "event"
    },
    {
      "constant": true,
      "inputs": [
        {
          "internalType": "bytes32",
          "name": "",
          "type": "bytes32"
        }
      ],
      "name": "documentdata",
      "outputs": [
        {
          "internalType": "bytes32",
          "name": "recordHash",
          "type": "bytes32"
        },
        {
          "internalType": "bytes32",
          "name": "authorName",
          "type": "bytes32"
        },
        {
          "internalType": "bytes32",
          "name": "title",
          "type": "bytes32"
        },
        {
          "internalType": "bytes32",
          "name": "email",
          "type": "bytes32"
        },
        {
          "internalType": "uint256",
          "name": "timestamp",
          "type": "uint256"
        },
        {
          "internalType": "bool",
          "name": "isDocExists",
          "type": "bool"
        }
      ],
      "payable": false,
      "stateMutability": "view",
      "type": "function"
    },
    {
      "constant": true,
      "inputs": [],
      "name": "owner",
      "outputs": [
        {
          "internalType": "address",
          "name": "",
          "type": "address"
        }
      ],
      "payable": false,
      "stateMutability": "view",
      "type": "function"
    },
    {
      "constant": false,
      "inputs": [
        {
          "internalType": "address",
          "name": "newOwner",
          "type": "address"
        }
      ],
      "name": "transferOwnership",
      "outputs": [],
      "payable": false,
      "stateMutability": "nonpayable",
      "type": "function"
    },
    {
      "constant": false,
      "inputs": [
        {
          "internalType": "bytes32",
          "name": "recordHash",
          "type": "bytes32"
        },
        {
          "internalType": "bytes32",
          "name": "authorName",
          "type": "bytes32"
        },
        {
          "internalType": "bytes32",
          "name": "title",
          "type": "bytes32"
        },
        {
          "internalType": "bytes32",
          "name": "email",
          "type": "bytes32"
        }
      ],
      "name": "authNewBook",
      "outputs": [],
      "payable": false,
      "stateMutability": "nonpayable",
      "type": "function"
    },
    {
      "constant": true,
      "inputs": [
        {
          "internalType": "bytes32",
          "name": "record",
          "type": "bytes32"
        }
      ],
      "name": "exists",
      "outputs": [
        {
          "internalType": "bool",
          "name": "",
          "type": "bool"
        }
      ],
      "payable": false,
      "stateMutability": "view",
      "type": "function"
    },
    {
      "constant": true,
      "inputs": [
        {
          "internalType": "bytes32",
          "name": "record",
          "type": "bytes32"
        }
      ],
      "name": "getBookDetailFromHash",
      "outputs": [
        {
          "internalType": "bytes32",
          "name": "",
          "type": "bytes32"
        },
        {
          "internalType": "bytes32",
          "name": "",
          "type": "bytes32"
        },
        {
          "internalType": "bytes32",
          "name": "",
          "type": "bytes32"
        },
        {
          "internalType": "uint256",
          "name": "",
          "type": "uint256"
        }
      ],
      "payable": false,
      "stateMutability": "view",
      "type": "function"
    }
  ],
  "bytecode": "0x6080604052336000806101000a81548173ffffffffffffffffffffffffffffffffffffffff021916908373ffffffffffffffffffffffffffffffffffffffff160217905550610529806100536000396000f3fe608060405234801561001057600080fd5b50600436106100625760003560e01c806338a699a4146100675780636408609f146100ad578063843e8d8a146101165780638da5cb5b14610162578063a5fb921f146101ac578063f2fde38b14610203575b600080fd5b6100936004803603602081101561007d57600080fd5b8101908080359060200190929190505050610247565b604051808215151515815260200191505060405180910390f35b6100d9600480360360208110156100c357600080fd5b8101908080359060200190929190505050610274565b6040518087815260200186815260200185815260200184815260200183815260200182151515158152602001965050505050505060405180910390f35b6101606004803603608081101561012c57600080fd5b81019080803590602001909291908035906020019092919080359060200190929190803590602001909291905050506102bd565b005b61016a610390565b604051808273ffffffffffffffffffffffffffffffffffffffff1673ffffffffffffffffffffffffffffffffffffffff16815260200191505060405180910390f35b6101d8600480360360208110156101c257600080fd5b81019080803590602001909291905050506103b5565b6040518085815260200184815260200183815260200182815260200194505050505060405180910390f35b6102456004803603602081101561021957600080fd5b81019080803573ffffffffffffffffffffffffffffffffffffffff169060200190929190505050610426565b005b60006001600083815260200190815260200160002060050160009054906101000a900460ff169050919050565b60016020528060005260406000206000915090508060000154908060010154908060020154908060030154908060040154908060050160009054906101000a900460ff16905086565b60008414156102cb57600080fd5b600060016000868152602001908152602001600020905084816000018190555083816001018190555082816002018190555081816003018190555042816004018190555060018160050160006101000a81548160ff021916908315150217905550847fc481bb149c66d56208c028a621fc4acbda596275d25ca429dc73edf59bb1ae6b85858542600160405180868152602001858152602001848152602001838152602001821515151581526020019550505050505060405180910390a25050505050565b6000809054906101000a900473ffffffffffffffffffffffffffffffffffffffff1681565b600080600080600160008681526020019081526020016000206001015460016000878152602001908152602001600020600201546001600088815260200190815260200160002060030154600160008981526020019081526020016000206004015493509350935093509193509193565b6000809054906101000a900473ffffffffffffffffffffffffffffffffffffffff1673ffffffffffffffffffffffffffffffffffffffff163373ffffffffffffffffffffffffffffffffffffffff1614156104f157600073ffffffffffffffffffffffffffffffffffffffff168173ffffffffffffffffffffffffffffffffffffffff16146104f057806000806101000a81548173ffffffffffffffffffffffffffffffffffffffff021916908373ffffffffffffffffffffffffffffffffffffffff1602179055505b5b5056fea265627a7a72315820bb6c38cdde8681131794f2d85c378149a4c2f1f040d4fbfe8e10427fa00f616464736f6c63430005100032",
  "source": "pragma solidity >=0.4.21 <0.7.0;\n\nimport './Ownable.sol';\n\ncontract Bookchain is Ownable {\n\n  struct Book {\n    bytes32 recordHash;\n    bytes32 authorName;\n    bytes32 title;\n    bytes32 email;\n    uint timestamp;\n    bool isDocExists;\n  }\n\n  mapping(bytes32 => Book) public documentdata;\n\n  event _NewBookAuth(bytes32 indexed recordHash, bytes32 authorName, bytes32 title, bytes32 email, uint256 timestamp, bool isDocExists);\n\n  function authNewBook(bytes32 recordHash, bytes32 authorName, bytes32 title, bytes32 email) external {\n\n    require(recordHash != \"\");\n\n    Bookchain.Book storage docdata = documentdata[recordHash];\n    docdata.recordHash = recordHash;\n    docdata.authorName = authorName;\n    docdata.title = title;\n    docdata.email = email;\n    docdata.timestamp = block.timestamp;\n    docdata.isDocExists = true;\n\n    emit _NewBookAuth(recordHash, authorName, title, email, block.timestamp, true);\n  }\n\n\n  function exists(bytes32 record) view public returns(bool) {\n    return documentdata[record].isDocExists;\n  }\n\n  function getBookDetailFromHash(bytes32 record) view public returns ( bytes32,bytes32,bytes32,uint256) {\n    return  ( documentdata[record].authorName , documentdata[record].title, documentdata[record].email, documentdata[record].timestamp );\n  }\n\n}",
  "sourcePath": "/home/ansnoussi/Desktop/BookChain/contracts/Bookchain.sol",
  "compiler": {
    "name": "solc",
    "version": "0.5.16+commit.9c3226ce.Emscripten.clang"
  },
  "schemaVersion": "3.4.1",
  "updatedAt": "2021-09-22T01:03:02.756Z",
  "devdoc": {
    "methods": {}
  },
  "userdoc": {
    "methods": {}
  }
}